:020000040800F2
:1000000080C1002051030008E17C0008AB740008A7
:10001000DD7C0008EF200008D1BC000800000000D3
:10002000000000000000000000000000B90200080D
:10003000CD22000800000000FD0200083D950008E8
:100040006B0300086B0300086B0300089D82000827
:100050006B0300086B0300086B030008DB22000839
:10006000E5220008EF220008F922000821220008FA
:1000700031220008412200085122000861220008B4
:100080007122000881220008151E000845BB0008E7
:1000900055BB00086B0300086B030008032300082E
:1000A0006B0300086B0300086B0300086B03000878
:1000B0006B030008599600086B0300086B030008E7
:1000C0006B0300086B0300086B0300086B03000858
:1000D0006B030008899C0008D59C0008219D00083E
:1000E000CF2200086B0300086B0300086B030008B5
:1000F000899600086B0300086B0300086B03000877
:100100006B030008DD840008699600086B03000893
:100110006B0300086B0300086B0300087996000866
:100120006B0300086B0300086B03000891220008B2
:1001300000F002F800F0B0F80AA090E8000C824449
:100140008344AAF10107DA4501D100F0A5F8AFF226
:10015000090EBAE80F0013F0010F18BFFB1A43F0A5
:100160000103184740820100608201000A444FF0F9
:10017000000C10F8013B13F0070408BF10F8014B06
:100180001D1108BF10F8015B641E05D010F8016B4B
:10019000641E01F8016BF9D113F0080F1EBF10F8AF
:1001A000014BAD1C0C1B09D16D1E58BF01F801CBD2
:1001B000FAD505E014F8016B01F8016B6D1EF9D555
:1001C0009142D6D37047000000230024002500266A
:1001D000103A28BF78C1FBD8520728BF30C148BFAA
:1001E0000B6070476E2900F04B83702900F0A384E8
:1001F000662914F0F683652914F0F383672914F057
:10020000F083612914F0EF8303681B0A28BF41F0D3
:100210008001692900F0F882642900F0F5827529CF
:1002200000F0F2826F2900F03084782900F06F84AA
:10023000E92900F0CB83E42900F0C883F52900F018
:10024000C583EF2900F02D84F82900F06E8403683F
:10025000DB0928BF41F08001632900F04C8373293A
:1002600000F05183E32901F0A780F32901F0AC806D
:10027000002070471FB501F0FDF8040000200021A8
:1002800013F064FB401C60600020002113F048FB69
:10029000E0601FBD10B510BD01F0BEF81146FFF7BC
:1002A000E9FF11F095F801F09BF903B4FFF7F2FFB5
:1002B00003BC01F0DFF90000224B19680868B0E8C0
:1002C000F00F80F30988BFF36F8F4FF0000080F3C9
:1002D00011884EF00D0E70470000000006480068BF
:1002E000006880F3088862B661B6BFF34F8FBFF332
:1002F0006F8F00DF00BF00BF08ED00E0EFF3098063
:10030000BFF36F8F0F4B1A6820E9F00F106008B52C
:100310004FF0500080F31188BFF34F8FBFF36F8F02
:1003200012F056FA4FF0000080F31188BDE8084043
:1003300019680868B0E8F00F80F30988BFF36F8F81
:10034000704700BF40010020EFF3058070470000B8
:100350000948804709480047FEE7FEE7FEE7FEE759
:10036000FEE7FEE7FEE7FEE7FEE7FEE70448054995
:10037000054A064B7047000001960008310100084D
:1003800080A1002080C1002080B1002080B1002029
:100390001CB50C46064B7B4469460090204600F095
:1003A00088FA04460020694600F096FA20461CBDF3
:1003B0003F0500000FB41CB5084B06AA7B446946F4
:1003C0000090059800F075FA04460020694600F098
:1003D00083FA20461CBC5DF814FB000019050000E0
:1003E00070B50C460546012A05D02878800600D550
:1003F000EA69002302E0012305E05B1C934202D27C
:10040000E05C0028F9D1A869E618C01AA861286A3A
:1004100018442862284600F0BDF904E0D5E901211E
:1004200014F8010B9047B442F8D3284600F0C8F9FD
:1004300070BD00002DE9F05F894604464FF0000AC8
:10044000DFF874B1FB44C0F820A02046E16888477B
:10045000002874D0252806D0D4E901219047206ACD
:10046000401C2062F1E700265F462046E16888478D
:100470002028054607DB312D05D2781910F8200C0D
:1004800008B10643F1E7B00701D526F00406C4F829
:100490001CA00027C4F818A02A2D09D028460EF069
:1004A0009BFB38B304EB8708303DC8F8185019E0BF
:1004B00059F8041B204604EB87029161E1688847E4
:1004C000012F054618D1E069002820DA26F0200621
:1004D0001DE0D8F8180000EB800005EB4000303834
:1004E000C8F818002046E168884705460EF074FBFE
:1004F0000028EED1012F0AD02E2D08D12046E16828
:1005000088477F1C0546022F46F02006C4DBA06901
:10051000002803DA404246F00106A061F00701D04E
:1005200026F010066C2D0BD0682D09D04C2D39D03B
:100530006A2D35D0742D35D07A2D33D016E038E0C1
:10054000E1682F4620468847B842054609D16C2FFE
:1005500026D04FF48060E168064320468847054670
:1005600004E06C2F1AD04FF4807006430DB3A5F150
:100570004100192802D8203546F400664A4629462B
:10058000204626604E46FFF72DFE80B101280BD095
:10059000F61D26F0070000F1080956E74020E4E7C1
:1005A0008020D8E70020D6E706F104094DE7284669
:1005B00052E7206ABDE8F09FF87D010040EA0103A0
:1005C00010B59B070FD1042A0DD310C808C9121FFC
:1005D0009C42F8D020BA19BA884201D9012010BD36
:1005E0004FF0FF3010BD1AB1D30703D0521C07E003
:1005F000002010BD10F8013B11F8014B1B1B07D167
:1006000010F8013B11F8014B1B1B01D1921EF1D1D7
:10061000184610BD10B5431C02E010F8011B71B163
:100620008107FAD14FF0013202C88C1A8C4314EAC8
:10063000C211F9D0C01A0A0603D0C01E10BDC01ADC
:1006400010BD0A0401D0801E10BD0902FCD0401E5E
:1006500010BD032A40F2308010F0030C00F015802A
:1006600011F8013BBCF1020F624498BF11F801CBB5
:1006700000F8013B38BF11F8013BA2F1040298BF1A
:1006800000F801CB38BF00F8013B11F0030300F084
:100690002580083AC0F0088051F8043B083A51F828
:1006A00004CBA0E80810F5E7121D5CBF51F8043B2D
:1006B00040F8043BAFF30080D20724BF11F8013BA0
:1006C00011F801CB48BF11F8012B24BF00F8013B02
:1006D00000F801CB48BF00F8012B704710B5203A55
:1006E000C0F00B80B1E81850203AA0E81850B1E8EB
:1006F0001850A0E81850BFF4F5AF5FEA027C24BFA1
:10070000B1E81850A0E8185044BF18C918C0BDE897
:1007100010405FEA827C24BF51F8043B40F8043B60
:1007200008BF7047D20728BF31F8023B48BF11F815
:10073000012B28BF20F8023B48BF00F8012B70476F
:100740004FF0000200B5134694469646203922BF6A
:10075000A0E80C50A0E80C50B1F12001BFF4F7AFB5
:10076000090728BFA0E80C5048BF0CC05DF804EB97
:10077000890028BF40F8042B08BF704748BF20F805
:10078000022B11F0804F18BF00F8012B7047704703
:100790007047704770B5044685690068C10601D589
:1007A000302600E02026C00707D070BDD4E9012123
:1007B00030469047206A401C20626D1EF6D570BD01
:1007C00070B5044685690078C00707D170BDD4E9CB
:1007D000012120209047206A401C20626D1EF6D522
:1007E00070BD09684A0501D540B27047C905FCD5FE
:1007F00000B2704709684A0501D5C0B27047C90503
:10080000FCD580B2704700002DE9F0410646002477
:1008100010687529314616A510D0FFF7E2FF0028B1
:1008200002DA404213A507E031688A0701D512A514
:1008300002E0490704D511A5012401E0FFF7DAFF22
:1008400000210A2206F1240709E0B0FBF2FCB0FB0C
:10085000F2F302FB1C00303078541846491C002883
:10086000F3D123462A463046BDE8F04100F0B3B943
:10087000000000002D0000002B0000002000000000
:1008800011680268006A530501D508700AE0D305B3
:1008900001D5088006E0130603D5C217C1E900029E
:1008A00000E008600120704701694A1C0261087875
:1008B000704700B58FB0CDE90131002105910549A0
:1008C0007944CDE9031011466846FFF7B3FD0FB038
:1008D00000BD0000E5FFFFFF0A6802F8010B0A6097
:1008E000704710B5436913B1AFF3008001E0FFF723
:1008F00077FD012010BD127800F124010A7000225A
:100900004A700122EDE711684FF0FF32E9E700007D
:100910002DE9FF5F15468A460446DFF8AC80F844AF
:100920000027D8E900103E46CDE9001010E03AF863
:1009300016106A4602A800F04BFD411C07D0217832
:10094000890603D5E269391891420DD80744761C0F
:100950002078800602D5E069B84205DDAE42E6DBCC
:100960003AF816000028E2D1A069C01BA061204619
:10097000FFF710FFD8E90010CDE90010002017E0C4
:100980003AF818106A4602A800F022FDB0F1FF3FC5
:1009900081460BD000250DF1080B05E0D4E90121BB
:1009A0001BF8050090476D1C4D45F7D308F1010079
:1009B000B0428046E4DB206A384420622046FFF7DC
:1009C000FFFEBDE8FF9F0000327901002DE9F041F4
:1009D0008046D21D22F007020025D2E90002F52947
:1009E00015A614D0011E72F1000106DA0023D0EB27
:1009F000030063EB020211A608E0D8F800108B0791
:100A000001D50FA602E0490701D50EA60125114622
:100A1000002408F1240704E000F098F830323A5539
:100A2000641C50EA0102F7D12B463246214640466B
:100A3000BDE8F04100F0CFB8000000002D0000003C
:100A40002B0000002000000030B4002100F124043D
:100A500008E002F00705D208303542EA4372DB08AD
:100A60006554491C52EA0305F3D10468002310A21F
:100A7000250707D5A40600D421B1C46901230DA21E
:100A8000641EC46130BC00F0A6B810B5044621460F
:100A90001068FFF7AFFE02462046BDE81040002375
:100AA000D2E7D21D22F00701D1E90023CCE70000F4
:100AB0000000000030000000F0B40D460188090578
:100AC00002D5214C7C4402E01F4C7C440E340021B2
:100AD00000F1240608E002F00F071209E75D42EA80
:100AE00003721B097754491C52EA0307F3D10278B9
:100AF0000023120704D5702D06D009B1022311344A
:100B00002246F0BC00F067B801231034F8E770B556
:100B100004460D4621461068FFF76CFE0246294642
:100B20002046BDE870400023C6E7D21D22F007032F
:100B3000D3E90023C0E70368126843F02003036091
:100B40000823C3610023B7E79477010030B5B0F103
:100B50000A024FEA900E71F100034EEA817EB0EB7B
:100B60000E0061EB91014FEA101E4EEA017E10EB80
:100B70000E0041EB11114FEA102E4EEA016E10EB00
:100B80000E0041EB11214FEA104E4EEA014E10EBE0
:100B90000E0041EB1141401841F100014FEAD00035
:100BA00040EA41704FEAD10110EB80054FEA810421
:100BB00044EA907444EB01046D1944EB0404521BA5
:100BC000A3414FF0000348BF0A3200D530BD401C9E
:100BD00041F1000130BD2DE9F0470D46994692469E
:100BE000044600F124080168880604D5E06921F074
:100BF0001001216000E00120A84201DD471B00E058
:100C00000027A1697A1902EB0900081AA06120786F
:100C1000C00602D42046FFF7BDFD002608E0D4E957
:100C200001211AF806009047206A401C761C2062B9
:100C30004E45F4DB2078C0060AD52046FFF7AAFD12
:100C400006E0D4E9012130209047206A401C206250
:100C5000381EA7F10107F4DC07E0D4E9012118F8F8
:100C600005009047206A401C2062281EA5F101055E
:100C7000F3DC2046FFF7A4FD2078000602D5022011
:100C8000BDE8F0870120FBE770472DE9FF4F0C46D8
:100C90001E464FF0FF378BB0D2E90001DDF86080CF
:100CA0000A908A46C1F30A5505B93D460021084617
:100CB0004FF00000BAF1000F00F4400005DA00EB3D
:100CC00080004FF4400101EA50004FEA9059B9F119
:100CD000010F00DDB9460A9850EA4A000ED044F6EA
:100CE0001050A5F2FF3545432F14B8F1000F1ED068
:100CF0007542291E1EDDC9F100021CE0B8F1010F8A
:100D00004FF0000001D0302103E0F24305E0215410
:100D1000401CB042FBDB30460022002121540B99DD
:100D2000C1F80880C1E900200FB0BDE8F08FBD1BFD
:100D30006D1CDEE74A4600DA694206A800F0DEFBD9
:100D400006AB93E8070003AB83E8070050460A9917
:100D500000F097FC8DE80700A0F500501F380090C8
:100D60000398002D0ADD42F21F014A460844002381
:100D700003A90390684600F000FF09E0A0F50050C9
:100D80004A461F38002303A90390684600F00AFF73
:100D90008DE807000004000C03D04FF0FF3041083D
:100DA00000E01046B8F1000F03D000220092154673
:100DB0001EE0751E05D4FFF7C9FE303262556D1E68
:100DC000F9D5B3460122084302D000227F1C04E07B
:100DD0002078302801D100227F1E002A099784D074
:100DE0001DE0112D07DAFFF7B1FE303262556D1CA0
:100DF00050EA0102F5D1084302D00098C8B10EE0D4
:100E00000021681E05E0235C625C63542254401E8E
:100E1000491C8142F7DBAB46A81B401E099000200D
:100E200004F80B000B98099AC0F80880C0E9002B61
:100E30007AE711264FF0000857E72DE9F04F884672
:100E40000446D21D22F0070191B0D1E90001CDE99D
:100E50000A010DF091FE02460B98C00F01D02D2023
:100E600007E02068810701D52B2002E0202101EA5C
:100E7000C000032A099001D0072A05DB034641463A
:100E8000204600F0FBFA0BE12078800601D5E069EE
:100E900000E00620B8F1650F814606D0B8F1660F74
:100EA00018D0B8F1670F70D131E00020B9F1110FFF
:100EB000009001DB112301E009F101030AAA01A955
:100EC0000CA8FFF7E2FEDDE90C70002609F1010530
:100ED000834647E001204B4600904FF000470AAAA6
:100EE00001A90CA8FFF7D1FEDDE90DB00C995D4614
:100EF000002610B909F101000D18B9EB050003D463
:100F0000C0F1FF3609F10105A5EB09002BE0B9F1AD
:100F1000010F01DA4FF001090020B9F1110F009023
:100F2000484601DD112300E003460AAA01A90CA8E6
:100F3000FFF7ABFEDDE90C704D46002683462078B6
:100F400000070AD4AB4500DA5D4601A8012D04DD97
:100F5000411911F8011C302907D04F4502DA17F169
:100F6000040F04DA012082460FE06D1EEEE7002F29
:100F700002DCED1B3E4403E0781CA84200DD7D1C32
:100F8000B81B00F1010A4FF000472078000703D496
:100F9000AA4501DB4FF0FF3A0021B7F1004F0DF1F8
:100FA00043088DF8431024D002202B23002F01DAB0
:100FB0007F422D230A21021EA0F1010000DC5FB157
:100FC00097FBF1FC97FBF1F201FB1C7C17460CF13F
:100FD000300C08F801CDEEE7A8F10100037021887C
:100FE000090501D5452100E06521A0F1010800F8BF
:100FF000011C09980FA9A1EB0807FF1D00B10120F2
:10100000411901EBEA70A1693844081A401EA06139
:101010002078C00602D42046FFF7BCFB099828B10F
:10102000D4E901219047206A401C20622078C00644
:1010300022D52046FFF7AEFB1EE0002E04DBB345B1
:1010400002DD01A8805D00E03020D4E90121904755
:10105000206A401C2062761CAAF101005FEA000AA7
:101060000AD100F007FAC0680168405CD4E90121A8
:101070009047206A401C2062281EA5F10105DCDC97
:1010800007E0D4E9012118F8010B9047206A401CC1
:101090002062381EA7F10107F3DC2046FFF790FB22
:1010A000032011B041E600002DE9F04F04460D4643
:1010B000D21D22F0070089B0D0E900974846394692
:1010C0000DF05AFD0246F80F01D02D2307E02068ED
:1010D000810701D52B2302E0202101EAC0038DF80E
:1010E00020300BB1012000E00020032A824601D00D
:1010F000072A04DB2946204600F0C0F93FE12078AA
:10110000800601D40D2500E0E569C7F30A560D2DD0
:1011100049DA00214FEA175B08464FF00000002F24
:1011200000F4400007DA00EB80004FF4400100EBD0
:10113000D07001EA60008115012901DD4FF0FF3117
:1011400000224FEA850CBCF1180F06D31346ACF110
:1011500018004FF08052C24003E04FF4801323FA8E
:101160000CF30CF10C0CBCF1200F04D3ACF1200CEF
:1011700009FA0CF001E007FA0CF000294FF00048E2
:1011800001DD18B90FE00ED140450CD319EB02096F
:101190005F4121B9404502D19F4329EA0209BBEBD7
:1011A000175F00D0761C2088000502D57B48784464
:1011B00002E07A487844193808AA302302F80A3045
:1011C000037C0AF10101002E0AF1020A53546A4617
:1011D00002DC4FF0300101E04FF031014FF0010827
:1011E0008DF8001002D0A6F2FF3603E059EA47015D
:1011F00000D06B4E002D02DC2178090704D54FF09A
:1012000002082E218DF80110C44600210BE0C7F31F
:1012100003433F01C35C491C6D1E02F808300529D9
:1012200008F1010801DA002DF1DC00210CE000EBEF
:101230001973491C1B786D1E082902F808304FEA03
:10124000091908F1010801DA002DF0DC21688B068C
:1012500002D516E0A8F10108E04505DD02EB080320
:1012600013F8013C302BF5D0B8F1000F09DD02EB8B
:10127000080313F8013C2E2B03D1090701D4A8F170
:101280000108002D05DD3E2102F808106D1E08F151
:101290000108407C002E02F8080008F1010804DA79
:1012A0002D20764202F8080002E02B2002F8080008
:1012B0000A214FF47A70864208F101080BDB96FB95
:1012C000F0F3303302F8083096FBF0F308F1010830
:1012D00000FB136601E0642E0CDB642096FBF0F348
:1012E000303302F8083096FBF0F308F1010800FBF8
:1012F000136601E00A2E06DB96FBF1F0303002F8AF
:10130000080008F1010896FBF1F001FB1060303095
:1013100002F80800A16908F1010808EB050202EBD8
:101320000A00081AA0612078C00602D42046FFF700
:1013300031FA216A08AE01EB0A00206204E0D4E928
:10134000012116F8010B9047BAF1010AF7D2207873
:10135000C00602D52046FFF71DFA6E4609E016F8D2
:10136000010B3E280FD0D4E901219047206A401C90
:101370002062B8F10108F2D22046FFF721FA09B045
:101380000320BDE8F08F206A2844206203E0D4E9FE
:101390000121302090476D1EEBD3F8E7E570010086
:1013A00002FCFFFF10B5436913B1AFF3008001E009
:1013B000FFF7AEFA012010BD128800F124018284EB
:1013C0000022C2840122EDE711684FF0FF32E9E705
:1013D00070B516460C46054600F044F8036893F8CD
:1013E0000101012806D0FF2C0FD8185D68B101203B
:1013F0002C7070BDD3F807013246214603F2071363
:1014000003442846BDE8704018474FF0FF3070BDD8
:10141000004870471CA100207546FFF7F9FFAE4653
:1014200005006946534620F00700854618B020B5F0
:10143000FEF79CFFBDE820404FF000064FF000078C
:101440004FF000084FF0000B21F00701AC46ACE86C
:10145000C009ACE8C009ACE8C009ACE8C0098D46D9
:101460007047000010B500F005F8001D10BD00BF6A
:10147000DD240100004870473CA100202DE9F04127
:101480001F46044603260168072A01F4006004DBB6
:1014900008B116A505E016A503E008B115A500E002
:1014A00015A521F010002060A069C01EA0610FB139
:1014B000401EA0612046FFF76DF94FB1D4E901212C
:1014C00038469047206A401C2062C01C206206E01B
:1014D000206AFAE7D4E9012115F8010B9047761E3E
:1014E000F8D22046FFF76CF9BDE8F0814E414E007E
:1014F0006E616E00494E4600696E66002DE9F04748
:10150000814616468AB0354878440DC88DE80D00EE
:1015100032487844801C03AC0DC884E80D0041F6C5
:101520009B300844372190FBF1F290FBF1F5A5F1D7
:10153000800501FB12041B3C02D56442012000E03F
:101540000020DFF898A080460027FA44AAF1BE0ADE
:101550000EE0E0070AD03246684607EB4701012358
:101560000AEB810100F01EFB8DE8070064107F1C70
:10157000002CEED1194F7F44AE3F19E0E80715D09B
:1015800007EB04100DF1180A90E80E008AE80E002F
:10159000C068F04201D1981908903246012306A98B
:1015A00003A800F0FFFA03AB83E807006D10641C8A
:1015B000002DE3D14FF0010332466946B8F1000F28
:1015C00003A802D000F0D9FA01E000F0EBFAC9E973
:1015D0000001C9F808200AB0BDE8F0871C6E0100C0
:1015E00010B50446AFF300802046BDE81040FEF77A
:1015F0005CBE00004FF0013C50F8042B51F8043B56
:101600009A4221D1A2EB0C03934313EACC1317D1D6
:1016100050F8042B51F8043B9A4215D1A2EB0C036D
:10162000934313EACC130BD150F8042B51F8043B2D
:101630009A4209D1A2EB0C03934313EACC13DBD0FB
:101640004FF00000704700BFD01A01BAB1FA81F123
:1016500001F0180122FA01F0CB40C1F12001DBB208
:10166000C0B2C01A2CFA01F3D11A914311EAC31186
:10167000E6D1704701491820ABBEFEE72600020004
:1016800070475FEA400C08BF91F0000F4FEA8C23CF
:101690004FEAC12243EA51514FEA1C5018BF00F5EE
:1016A000F0404FEA300018BF41F000415FEA6C5C47
:1016B00000F02980BCF1FF3F08BF40F08040704738
:1016C000130C06BF12044FF0100C4FF0000C130E59
:1016D00004BF12020CF1080C130F04BF12010CF12D
:1016E000040C930F04BF92000CF1020CD30F04BF43
:1016F00052000CF1010C11464FF00002A0F11F0046
:10170000A0EB0C00704711F0004F08BF704731F09C
:1017100000413FF4D5AF0B0C06BF09044FF0100C8D
:101720004FF0000C0B0E04BF09020CF1080C0B0F5C
:1017300004BF09010CF1040C8B0F04BF89000CF1EC
:10174000020CCB0F04BF49000CF1010CCCF12003BB
:10175000A0EB0C0022FA03F302FA0CF241EA0301B7
:1017600000F10100704720F07F4C80EA030023F075
:101770007F47ACEB070303F57C5300F0004003F117
:10178000FF032DE980494FEA154B09B44FEA144392
:1017900025EA0B4E24EA03480FF2042606EB132732
:1017A00049083E785FEA320203FB0667C7F5000787
:1017B00007FB06F64FEA54374FEAD64606F1020613
:1017C00007FB066CCCF1005C4FEA1C472CEA074C87
:1017D00007FB06F40CFB06F504EB15464FEA9616DC
:1017E00034BF00204FF000404FEAD13706FB07FC22
:1017F0004FEA1C4C0CFB0BF7D21B03FB0CF761EB05
:1018000007010CFB0EF7B0EB074072EB17420CFB25
:1018100008F734BFA2EB0742B2EB074261EB174176
:101820004FEA0C444FEA910706FB07FC4FEA1C4CB9
:101830000CFB0BF7B0EBC74072EB573203FB0CF716
:1018400034BFA2EBC742B2EBC74261EB57310CFB8E
:101850000EF7B0EBC70072EB57720CFB08F734BF02
:10186000A2EBC702B2EBC70261EB5771039F4FEACD
:10187000816141EA921104EBCC044FEAD1374FEA7F
:10188000826206FB07FC42EA90124FEA80604FEA50
:101890001C4C0CFB0BF7D21B03FB0CF761EB070195
:1018A0000CFB0EF7B0EB074072EB17420CFB08F78E
:1018B00034BFA2EB0742B2EB074261EB17414FEA9C
:1018C0008C554FEA910704EB9C2406FB07FC4FEA7A
:1018D0001C4C0CFB0BF7B0EBC74072EB573203FB11
:1018E0000CF734BFA2EBC742B2EBC74261EB5731F2
:1018F0000CFB0EF7B0EBC70072EB57720CFB08F74E
:1019000034BFA2EBC702B2EBC70261EB577115EB14
:101910004C254FEA816141EA92114FEA82624FEA17
:10192000D13742EA901206FB07FC44F100044FEA6B
:1019300080604FEA1C4C0CFB0BF7D21B03FB0CF72F
:1019400061EB07010CFB0EF7B0EB074072EB17429F
:101950000CFB08F734BFA2EB0742B2EB074261EB86
:10196000174115EB1C154FEA813141EA92414FEACC
:10197000823242EA90424FEA80304FEA0C7644F1DC
:10198000000448EA03434EEA0B484FF0000EB2EB66
:10199000080C71EB030724BF624639464EEB0E0E6E
:1019A0004FF0000B0018524149414BEB0B0BB2EBCF
:1019B000080C71EB03077BF1000B24BF624639462C
:1019C0004EEB0E0E4FF0000B0018524149414BEB0D
:1019D0000B0BB2EB080C71EB03077BF1000B24BF80
:1019E000624639464EEB0E0E51EA020718BF46F02A
:1019F000010616EB0E7655F1000254F1000103D5F5
:101A0000BDE88901BDE80088BDE88901BDE800485E
:101A1000B619524141EB0101A3F1010370478080E7
:101A20007F7E7D7C7B7A7978777676757473727138
:101A300071706F6E6E6D6C6C6B6A6A6968686766F0
:101A400066656464636362616160605F5F5E5E5D82
:101A50005D5C5C5B5B5A5A595958585757565655F6
:101A600055555454535352525251515050504F4F58
:101A70004F4E4E4D4D4D4C4C4C4B4B4B4A4A4A49A8
:101A800049494848484747474746464645454544EB
:101A90004444444343434342424242414141002B78
:101AA0009C4630D477002BD01CB54FEA370703B4DF
:101AB0004FF010004FF01001BAF1000F06D0BCF14A
:101AC000000FDCBF40F0080040F008014FF00000BC
:101AD0000FBCBDE810400BF1010BBBF1010F08BFBB
:101AE0005FEA170722BF12F1010211F101014FF065
:101AF000004143F1000300F0004043EA000070475A
:101B0000F9D35708D0E746EA064613F1400F4FEAEB
:101B100016461FDD13F1200FDFBF16430A460021D2
:101B200020335B42BED0C3F1200746EA064602FAE4
:101B300007F74FEA164646EA0706C3F1200722FADE
:101B400003F201FA07F721FA03F14FF0000342EA2A
:101B50000702A7E746EA020646EA06464FEA1646A5
:101B600046EA0106BCBF46EA0646360C4FF00003C3
:101B70004FF000024FF0000194E72DE9804C9A46A7
:101B8000934670B491E8380007C831EA400C48BF6A
:101B900034EA430C03D5FFF7E6FDFFF780FFF0BC06
:101BA000BDE8008C2DE9804C9A46934670B491E8CC
:101BB000380007C810F0804F08BF13F0804F03D1E2
:101BC00000F005F8FFF76BFFF0BCBDE8008C20F0DB
:101BD0007F4780EA030023F07F4C07EB0C03A3F55B
:101BE0007C5300F00040A3F1FE0392F0000F00F0E0
:101BF000B38095F0000F00F077802DE901494FEA9E
:101C000011404FEA144621EA004800FB06FC24EA92
:101C1000064708FB06F607FB08F800FB07F718EB7A
:101C200006484CEB164C4FEA124B18EB07484FEAAC
:101C300015464CEB174022EA0B4E0BFB06FC25EA3F
:101C400006470EFB06F607FB0EFE0BFB07F71EEB27
:101C5000064E4CEB164C4FF000061EEB074E4CEBBD
:101C6000174B18EB0B0840F1000018EB0E0B58EB6C
:101C7000000840F100008F1A4FF000013CBFC9433B
:101C8000661B14BFB5EB040C00213CBFC943F61B17
:101C90004FEA17444EEA8E0E27EA04454FEA1C47E6
:101CA00004FB07622CEA074C05FB07F70CFB05F663
:101CB00004FB0CFC16EB074642EB174216EB0C46F6
:101CC00042EB1C421BEB060658EB0202414146EA7E
:101CD0009E0601D5BDE80189B619524141EB0101CB
:101CE000A3F10103BDE801894FEA14454FEA11470A
:101CF00024EA054621EA074C05FB07F406FB07F733
:101D00000CFB06F105FB0CFC11EB074144EB1744FF
:101D10004FEA124711EB0C4144EB1C4422EA074CFA
:101D200005FB07F206FB07F70CFB06F605FB0CFCB0
:101D300016EB074642EB174216EB0C4642EB1C45EE
:101D40006A1854F1000148BF7047B619524141EB7F
:101D50000101A3F10103704795F0000F37D04FEA5E
:101D600011424FEA144721EA024624EA074C02FBDB
:101D700007F106FB07F70CFB06F402FB0CFC14EB67
:101D8000074441EB17414FEA154714EB0C4441EB74
:101D90001C4125EA074C02FB07F506FB07F70CFB85
:101DA00006F602FB0CFC16EB074645EB174516EB57
:101DB0000C4645EB1C42121951F1000148BF704717
:101DC000B619524141EB0101A3F1010370474FEAFB
:101DD00014454FEA114724EA054621EA074C05FB62
:101DE00007F106FB07F70CFB06F24FF0000605FBB8
:101DF0000CFC12EB074241EB174112EB0C4251EB8A
:101E00001C4148BF7047921841EB0101A3F1010347
:101E10007047000010B5034800F0ACFC024800F029
:101E2000A9FC10BDB02C0020E02C002070B50446A9
:101E300000252068806800F0010018B320688068E1
:101E400020F001002168886001F016FD054613E0CE
:101E500001F012FD401B02280ED92068806800F0B6
:101E6000010048B1A06A40F01000A062E06A40F0B2
:101E70000100E062012070BD2068806800F0010070
:101E80000028E5D10020F6E770B505466C6AA06A27
:101E900000F05000E0B9A06A40F40070A062206831
:101EA000806800F46020B0F5602F0DD1207B58B918
:101EB000A06A20F48070A062A06A00F4805018B973
:101EC000A06A40F00100A062204600F03BFC03E065
:101ED000206A016B2846884770BD70B505466C6A5C
:101EE000A06A40F04000A062E06A40F00400E062B6
:101EF000204600F03EFC70BD70B50446656A284679
:101F000000F036FC70BD000038B504460025002006
:101F100000902068806800F0010078BB206880682D
:101F200040F0010021688860194800681949B0FB39
:101F3000F1F0009002E00098401E00900098002808
:101F4000F9D101F099FC054619E001F095FC401B20
:101F5000022814D92068806800F0010078B9A06ACE
:101F600040F01000A062E06A40F00100E06200BFB3
:101F7000002084F8240000BF012038BD05E020685F
:101F8000806800F001000028DFD00020F5E70000A5
:101F90003C01002040420F00014600220A6100BFC0
:101FA000084A126812B9074A116008E0054A106829
:101FB00000E000690269002AFBD1016100BF00BF97
:101FC0007047000008000020014600220A6100BF9F
:101FD000084A126812B9074A116008E0054A1068F9
:101FE00000E000690269002AFBD1016100BF00BF67
:101FF0007047000000000020014600220A61064AE6
:10200000106808B9116005E000E000690269002A63
:10201000FBD1016170470000040000207047000000
:1020200010B504462146024803F066FB10BD0000CF
:10203000682D002010B5044803F071FB042801D07E
:10204000012010BD0020FCE7682D002010B5002401
:1020500000F014F8012801D0012010BD064803F05B
:1020600075FC044634B94FF40061034803F0FAF9F3
:1020700000B101242046F0E7682D002008B50120BA
:1020800000909DF8000008BD2DE9F84304460D4678
:1020900016461F464FF0000833462A46214605489B
:1020A000009703F045FD08B14FF001084046BDE838
:1020B000F8830000682D0020704700002DE9F843E8
:1020C00004460D4616461F464FF0000833462A4682
:1020D00021460548009703F081FE08B14FF0010842
:1020E0004046BDE8F8830000682D0020704700BF1F
:1020F000FEE7000070B504460E46154600230AE0D0
:1021000003EB83001F4931F92000A04201D10220D6
:1021100070BD581CC3B2142BF2DB00232EE003EB7E
:102120008300184931F8200030BB03EB830021F80D
:10213000204003EB830001EB8000866003EB83000B
:1021400001EB80004560002003EB83010D4A02EBA8
:1021500081010861002D06DD03EB830102EB8100A4
:10216000FFF732FF06E003EB8301064A02EB810032
:10217000FFF712FF0020CBE7581CC3B2142BCEDBB5
:102180000120C5E7AC01002030B505460C46002C07
:1021900001DC002030BD002310E003EB83001F4969
:1021A00001EB80008068A84206D103EB830001EBBD
:1021B000800044600020EDE7581CC3B2142BECDB18
:1021C000002327E003EB8300144931F82000F8B91D
:1021D0004FF0FF3003EB8301104A22F8210003EB9C
:1021E0008300114601EB8000856003EB830001EB67
:1021F00080004460002003EB830102EB8101086151
:1022000003EB830102EB8100FFF7DEFE0020C1E754
:10221000581CC3B2142BD5DB0120BBE7AC01002056
:1022200010B5024800F086FE10BD0000102D002001
:1022300010B5024800F07EFE10BD00008031002085
:1022400010B5024800F076FE10BD00003C310020C1
:1022500010B5024800F06EFE10BD00007030002086
:1022600010B5024800F066FE10BD00002C300020C2
:1022700010B5024800F05EFE10BD0000B430002032
:1022800010B5024800F056FE10BD0000F8300020E6
:1022900010B5024800F04EFE10BD0000EC2D0020ED
:1022A00030B590F840500124AC40C56B6C600468B8
:1022B00063604468102C04D10468A2600468E16083
:1022C00003E00468A1600468E26030BD704710B5A7
:1022D0004FF4006001F014F910BD10B5022001F0B8
:1022E0000FF910BD10B5042001F00AF910BD10B5AA
:1022F000082001F005F910BD10B5102001F000F91B
:1023000010BD10B5202001F0FBF8402001F0F8F8D6
:1023100010BD704730B504460D46002229462046C0
:1023200000F002F830BD0000F0B50346012500249E
:102330001148807B02281CDC00200F4EB67B0E4F1C
:10234000B8553846867B001D40F82630001F867B36
:102350000C3082553E46B07B461CBE73044604F1E9
:10236000300008703A2048702F2088700020C87014
:1023700000252846F0BD00000CA1002070B50446E1
:10238000B3F5804F13D1D1E9000540EA05108D68FF
:1023900040EA05208D6928438D8940EA054054F8BC
:1023A0002250064E3540284344F8220003E06FF0E7
:1023B000704044F82200002070BD00000000F0CF03
:1023C00070B50246086852F8200020F001000E683F
:1023D00042F826008868082801D1402300E0002345
:1023E000486818438E683043CE6830430E693043E6
:1023F0004E693043CE6930430E6A30434E6A3043F3
:102400008E6A3043CE6A30430E6B40EA0604886918
:102410000443486B0443074D45F4806545F4E025CB
:10242000086852F82000A84320430E6842F82600AE
:10243000002070BD7FFB080010B50346D1E9000401
:1024400040EA04108C6840EA04208C8940EA044485
:10245000088A401E44EA0054087D801E44EA006059
:102460008C692043541C53F8244004F0404420431A
:10247000541C43F82400002010BD10B502460B4642
:1024800000211088012107E032F81140844201DD6B
:1024900032F811004C1CA1B25C1E8C42F4DC10BD61
:1024A00010B502460B4600211088012107E032F8E2
:1024B0001140844201DA32F811004C1CA1B25C1EBA
:1024C0008C42F4DC10BD0000F8B504460026002064
:1024D000009000BF94F82400012801D10220F8BD2B
:1024E000012084F8240000BF2046FFF79FFC064629
:1024F000002E6CD1A06A20F4885040F00200A06247
:10250000022002F079F835490968B1FBF0F040008B
:10251000009002E00098401E009000980028F9D139
:102520002046FFF7F1FC2068806840F00800216831
:10253000886001F0A1F9054616E001F09DF9401B05
:102540000A2811D92068806800F0080060B1A06AEC
:1025500020F0020040F01000A06200BF002084F8CC
:10256000240000BF0120BAE72068806800F008005E
:102570000028E2D12068806840F00400216888606B
:1025800001F07AF9054616E001F076F9401B0A28B9
:1025900011D92068806800F0040060B1A06A20F0C2
:1025A000020040F01000A06200BF002084F8240068
:1025B00000BF012093E72068806800F00400002835
:1025C000E2D1A06A20F0020040F00100A06200BF4A
:1025D000002084F8240000BF304680E73C01002042
:1025E0007047000038B5024600230020009000BF6D
:1025F00092F82400012801D1022038BD012082F880
:10260000240000BF4868072812D21068406B0C797C
:10261000641E04EB84051F24AC40A0430D796D1E9D
:1026200005EB85050C68AC4020431468606327E027
:1026300048680D2812D21068006B0C79E41F04EB77
:1026400084051F24AC40A0430D79ED1F05EB8505E3
:102650000C68AC4020431468206311E01068C06A25
:102660000C790D3C04EB84051F24AC40A0430D798C
:102670000D3D05EB85050C68AC4020431468E06215
:1026800008680A2812D31068C0680C780A3C04EB6A
:1026900044050724AC40A0430D780A3D05EB4505F1
:1026A0008C68AC4020431468E0600FE0106800695B
:1026B0000C7804EB44050724AC40A0430D7805EBEF
:1026C00045058C68AC4020431468206108681028D8
:1026D00002D00868112827D1174C1068A0421ED1DB
:1026E0001068806800F40000F0B91068806840F459
:1026F00000001468A0600868102815D10F48006811
:102700000F4CB0FBF4F000EB80004000009002E0C2
:102710000098401E009000980028F9D104E0906ACB
:1027200040F020009062012300BF002082F82400C6
:1027300000BF184661E70000002401403C01002072
:1027400040420F0010B504460648844208D1204696
:1027500000F0BCFA044804F001F9022003490880A3
:1027600010BD0000B02C0020882E0020C8000020E2
:102770007047704710B504462068406800F020009C
:1027800020282FD12068006800F00200022829D1FB
:10279000A06A00F0100018B9A06A40F40070A062AE
:1027A0002068806800F46020B0F5602F13D1207B92
:1027B00088B92068406820F0200021684860A06A3D
:1027C00020F48070A062A06A00F4805018B9A06A5A
:1027D00040F00100A0622046FFF7B4FF6FF0120046
:1027E000216808602068406800F0800080283BD1A4
:1027F0002068006800F00400042835D1A06A00F0C9
:10280000100018B9A06A40F40050A06220688068E7
:1028100000F4E040B0F5E04F0DD02068406800F4CF
:102820008060D0B92068806800F46020B0F5602F27
:1028300013D1207B88B92068406820F0800021688F
:102840004860A06A20F48050A062A06A00F4807002
:1028500018B9A06A40F00100A0622046FFF7C0FE50
:102860006FF00C00216808602068406800F04000AC
:1028700040280FD12068006800F0010050B1A06A24
:1028800040F48030A062204600F0B6F86FF00100FE
:102890002168086010BD00002DE9F04104460027C2
:1028A00000250026A84614B90120BDE8F081A068E3
:1028B00010B1207D00B100BFA06A30B90020E062F5
:1028C00084F82400204600F099F82046FFF7AEFA7D
:1028D0000746A06A00F01000002873D1002F7ED1B7
:1028E000A06A20F4885040F00200A0623F4AD4E978
:1028F0000001904208D1E069B0F5402F02D14FF4B9
:10290000002002E0E06900E0E0690143207B41EA49
:1029100040000643A068B0F5807F02D0A06801287F
:1029200002D14FF4807000E000200543207D012893
:1029300011D1207B38B9A069401E4FF4006141EAF3
:102940004030054307E0A06A40F02000A062E06A42
:1029500040F00100E0622068406820F469402843AC
:102960002168486020688068214908403043216818
:102970008860A068B0F5807F02D0A068012802D1ED
:102980004FF4807000E00020B0F5807F03D1208AF2
:10299000401E4FEA00582068C06A20F4700040EAE8
:1029A00008002168C8622068806812490840B04267
:1029B00009D10020E062A06A20F0020040F001008E
:1029C000A06211E00BE0A06A20F0020040F01000CD
:1029D000A062E06A40F00100E062012704E0A06A22
:1029E00040F01000A062012738465EE7003C01403D
:1029F000FDF7E1FFFE0E1FFF7047000010B586B027
:102A000004460020029003900490059048492068F5
:102A1000884247D100BF4748806940F4007045496B
:102A200088610846806900F40070019000BF00BF13
:102A300000BF0846806940F004008861084680694C
:102A400000F00400019000BF00BF012002900320AD
:102A5000039002A9384800F061FD38483849086001
:102A6000002048600021364881608021C160490013
:102A7000016189004161202181610021C16100F073
:102A800025FC08B1FFF745FC00BF2D4820624462D9
:102A900000BF00220521122000F096FF122000F056
:102AA00083FF43E02749206888423FD100BF214887
:102AB000806940F480601F4988610846806900F49D
:102AC0008060019000BF00BF00BF0846806940F0F1
:102AD000040088610846806900F00400019000BF8E
:102AE00000BF00BF0846806940F0100088610846BA
:102AF000806900F01000019000BF00BF022002902A
:102B00000320039002A90C4800F008FD2020029049
:102B10000320039002A90C4800F000FD00220521CB
:102B2000122000F051FF122000F03EFF06B010BD51
:102B3000002401400010024000080140080002404B
:102B4000102D002000280140001001402DE9F04127
:102B500004460D461646002757492068884203D090
:102B600056492068884205D15348001D006800F48A
:102B7000702000E0002000287ED100BF94F82400DF
:102B8000012802D10220BDE8F081012084F8240050
:102B900000BF2046FFF7B8F90746002F6DD1A06AA5
:102BA00040F60161884340F48070A0624349206888
:102BB000884209D14048001D006800F4702008B91F
:102BC000012002E0002000E0012078B1A06A20F49A
:102BD0008010A0622068406800F4806000B3A06AA2
:102BE00020F4005040F48050A06219E0A06A40F444
:102BF0008010A06230492068884203D02F492068A5
:102C0000884205D12C48001D006800F4806000E077
:102C1000002028B1A06A20F4005040F48050A06247
:102C2000A06A00F4805020B1E06A20F00600E06263
:102C300001E00020E06200BF002084F8240000BF13
:102C40001F48216A88621F48216AC8621E48216A9B
:102C500008636FF00200216808602068806840F413
:102C6000807021688860226802F14C0133462A4650
:102C7000206A00F071FB01E01AE014E0206880682F
:102C800000F46020B0F5602F06D12068806840F421
:102C9000A000216888600CE02068806840F4801003
:102CA0002168886005E000BF002084F8240000E06F
:102CB0000127384667E70000002401400028014052
:102CC000891E0008F91E0008DB1E000870B50446C6
:102CD000002500BF94F82400012801D1022070BD16
:102CE000012084F8240000BF2046FFF79FF8054626
:102CF000D5B92068806820F4807021688860206AD7
:102D000090F8210002280FD1206A00F014F805463F
:102D100035B9A06A20F4885040F00100A06203E0B9
:102D2000A06A40F04000A06200BF002084F82400A8
:102D300000BF2846D3E70146002291F8210002286F
:102D400008D00420886300BF002081F8200000BF65
:102D5000012070470868006820F00E000B681860BA
:102D60000868006820F001000B68186091F8403096
:102D700001209840CB6B5860012081F8210000BFF2
:102D8000002081F8200000BF1046E2E770B504463D
:102D9000002594F82100022803D00420A063012517
:102DA000C1E02068006820F00E00216808602068FB
:102DB000006820F00100216808605C4920688842B2
:102DC00052D95A4978392068884201D1012047E018
:102DD000564964392068884201D1102040E05349A7
:102DE00050392068884201D1801539E04F493C397B
:102DF0002068884201D1801432E04C49283920688B
:102E0000884202D14FF480302AE0484914392068C2
:102E1000884202D14FF4801022E044492068884261
:102E200001D140041CE042492068884201D10120C0
:102E300016E03F4914312068884201D110200FE08C
:102E40003B4928312068884201D1801508E0384983
:102E50003C312068884201D1801401E04FF4803079
:102E60003349091F086051E03049783920688842A9
:102E700001D1012047E02D4964392068884201D101
:102E8000102040E0294950392068884201D180153E
:102E900039E026493C392068884201D1801432E06B
:102EA000224928392068884202D14FF480302AE034
:102EB0001E4914392068884202D14FF4801022E064
:102EC0001A492068884201D140041CE01849206852
:102ED000884201D1012016E015491431206888424A
:102EE00001D110200FE0124928312068884201D119
:102EF000801508E00E493C312068884201D18014D9
:102F000001E04FF48030094980394860012084F89D
:102F1000210000BF002084F8200000BF606B10B1CA
:102F20002046616B8847284670BD00008000024043
:102F30000804024070B50446E06B05682068066826
:102F400094F84010042088402840002875D006F0EE
:102F500004000028FAD02068006800F0200028B99A
:102F60002068006820F0040021680860D5492068C6
:102F7000884254D9D34978392068884201D1042045
:102F800049E0D04964392068884201D1402042E0BC
:102F9000CC4950392068884201D100153BE0C9492D
:102FA0003C392068884202D14FF4804033E0C54963
:102FB00028392068884202D14FF480202BE0C14993
:102FC00014392068884202D14FF4800023E0BD49C3
:102FD0002068884201D1C0041DE0BB4920688842B6
:102FE00001D1042017E0B84914312068884201D18A
:102FF000402010E0B44928312068884201D10015F2
:1030000009E0B1493C312068884202D14FF4804048
:1030100001E04FF48020AC49091F086054E0A94941
:1030200078392068884201D104204AE0A5496439F2
:103030002068884202D1402043E04CE0A149503949
:103040002068884201D100153BE09E493C39206848
:10305000884202D14FF4804033E09A4928392068F1
:10306000884202D14FF480202BE096491439206821
:10307000884202D14FF4800023E0924920688842C0
:1030800001D1C0041DE090492068884201D104208C
:1030900017E08D4914312068884201D1402010E0AA
:1030A000894928312068884201D1001509E0864904
:1030B0003C312068884202D14FF4804001E04FF457
:1030C0008020804980394860E06A002802D020468C
:1030D000E16A8847F4E094F84010022088402840D4
:1030E000002871D006F002000028FAD0206800689D
:1030F00000F0200040B92068006820F00A00216834
:103100000860012084F821006E492068884254D963
:103110006C4978392068884201D1022049E0694928
:1031200064392068884201D1202042E06549503945
:103130002068884201D140153BE062493C39206853
:10314000884202D14FF4005033E05E4928392068AC
:10315000884202D14FF400302BE05A4914392068DC
:10316000884202D14FF4001023E05649206888427B
:1031700001D180041DE054492068884201D1022019
:1031800017E0514914312068884201D1202010E015
:103190004D4928312068884201D1401509E04A494B
:1031A0003C312068884202D14FF4005001E04FF4D6
:1031B00000304549091F086054E0424978392068C9
:1031C000884202D102204AE057E03E496439206833
:1031D000884201D1202042E03A4950392068884293
:1031E00001D140153BE037493C392068884202D183
:1031F0004FF4005033E0334928392068884202D127
:103200004FF400302BE02F4914392068884202D156
:103210004FF4001023E02B492068884201D180043C
:103220001DE029492068884201D1022017E0264983
:1032300014312068884201D1202010E02249283131
:103240002068884201D1401509E01F493C312068BF
:10325000884202D14FF4005001E04FF40030194988
:103260008039486000BF002084F8200000BFA06AB9
:1032700030B32046A16A884722E094F84010082025
:1032800088402840E0B106F00800C8B12068006816
:1032900020F00E002168086094F84010012088405A
:1032A000E16B48600120A06384F8210000BF00208A
:1032B00084F8200000BF206B10B12046216B8847A6
:1032C00070BD000080000240080402400146002258
:1032D00009B9012070471E4B086898420BD21D4B5C
:1032E0000868C01A1423B0FBF3F080000864194882
:1032F0000838C8630AE0164B0868C01A1423B0FBEC
:10330000F3F08000086412480838C863022081F88E
:1033100021000868026843F6F0708243D1E9010396
:103320001843CB6818430B6918434B6918438B69E2
:103330001843CB6918430243086802600020886381
:10334000012081F82100002081F8200000BFC1E7A2
:1033500008040240080002402DE9F04104460D46F1
:1033600016461F464FF0000800BF94F820000128C1
:1033700002D10220BDE8F081012084F8200000BFC6
:1033800094F8210001282CD1022084F8210000208B
:10339000A0632068006820F00100216808603B46B7
:1033A000324629462046FEF77BFFE06A30B12068AE
:1033B000006840F00E00216808600BE0206800689B
:1033C00020F00400216808602068006840F00A00CE
:1033D000216808602068006840F0010021680860EA
:1033E00006E000BF002084F8200000BF4FF0020874
:1033F0004046BFE770B5044600F03EFA0646254653
:10340000681C10B104480078054400BF00F034FA8D
:10341000801BA842FAD370BD3801002000B585B0EA
:10342000002001900290039004901748006808B1B2
:1034300005B000BD01201449086000BF1348406971
:1034400040F48070114948610846406900F480707A
:10345000009000BF00BF4FF68470019002200290E0
:103460000320049001A90A4800F058F84CF2B37008
:103470000190022002900320049001A9054800F069
:103480004DF800BFD4E700002801002000100240E2
:10349000001801400014014070B504460125B4F540
:1034A000006F0AD1032211490420FEF723FE0546CE
:1034B0001DB10321042006F015F8402C15D1402140
:1034C0000B4800F0CBF9012806D10221002008F0BA
:1034D00017FF0849086008E00221002008F010FFEB
:1034E0000549086001200549086070BD65DE0008D7
:1034F00000180140C0000020BC000020C4000020D3
:1035000010B5044604480068204020B10248046019
:103510002046FFF7C1FF10BD140401402DE9F84714
:10352000024600239C467BE14FF0010808FA03F4B1
:10353000D1F8008008EA0400A0427DD1DFF8F4A2AF
:10354000D1F80480A8EB0A09D0453AD014DCB8F1D0
:10355000030F50D009DCB8F1000F31D0B8F1010FE2
:103560001CD0B8F1020F49D120E0B8F1110F18D0EA
:10357000B8F1120F42D11EE0B9F5881F25D006DC44
:10358000B9F5803F20D0B9F5801F37D11AE0B9F5E1
:10359000001F18D0B9F5041F30D117E0D1F80CC0C6
:1035A0002DE0D1F80C8008F1040C28E0D1F80C8053
:1035B00008F1080C23E0D1F80C8008F10C0C1EE097
:1035C00000BF00BF00BF00BF00BF00BFD1F8088030
:1035D000B8F1000F02D14FF0040C0BE0D1F80880D5
:1035E000B8F1010F03D14FF0080C146102E04FF065
:1035F000080C546103E04FF0000C00E000BF00BF76
:10360000FF2801D8904601E002F104084646FF2851
:1036100002D84FEA830803E0A3F108084FEA8808BC
:103620004746D6F800804FF00F0909FA07F928EA53
:1036300009080CFA07F900E07AE048EA0908C6F838
:103640000080D1F8048008F08058B8F1805F6FD115
:1036500000BFDFF8E481D8F8188048F00108DFF8EF
:10366000D891C9F81880C846D8F8188008F0010821
:10367000CDF8008000BF00BF4FEAB9384FEA930988
:1036800058F829504FEA83784FEA18794FF00F081D
:1036900008FA09F825EA0805DFF8A081424502D1B9
:1036A0004FF0000824E0DFF89881424502D14FF046
:1036B00001081DE0DFF88C81424502D14FF002087D
:1036C00016E0DFF88481424502D14FF003080FE095
:1036D000DFF87881424502D14FF0040808E0DFF8B6
:1036E0007081424502D14FF0050801E04FF0060815
:1036F0004FEA83794FEA197908FA09F848EA05058B
:10370000DFF850814FEA930948F82950D1F8048036
:1037100008F48038B8F5803F0BD1DFF83C81D8F849
:10372000008048EA0008DFF83091C9F800800AE01C
:1037300075E0DFF82481D8F8008028EA0008DFF877
:103740001891C9F80080D1F8048008F40038B8F561
:10375000003F0ED1DFF8008108F10408D8F800809E
:1037600048EA0008DFF8F09009F10409C9F8008080
:103770000DE0DFF8E48008F10408D8F8008028EABA
:103780000008DFF8D49009F10409C9F80080D1F8E5
:10379000048008F48018B8F5801F0ED1DFF8B880D7
:1037A00008F10808D8F8008048EA0008DFF8A89077
:1037B00009F10809C9F800800DE0DFF89C8008F1E4
:1037C0000808D8F8008028EA0008DFF88C9009F192
:1037D0000809C9F80080D1F8048008F40018B8F589
:1037E000001F0ED1DFF8708008F10C08D8F80080B7
:1037F00048EA0008DFF8609009F10C09C9F8008078
:103800000DE0DFF8548008F10C08D8F8008028EAB1
:103810000008DFF8449009F10C09C9F800805B1C2E
:10382000D1F8008028FA03F8B8F1000F7FF47CAEDD
:10383000BDE8F887000011100010024000080140A8
:10384000000C01400010014000140140001801402C
:10385000001C01400800014000040140024693683A
:103860000B400BB1012000E0002070470AB101615C
:1038700001E00B04036170470148006870470000D5
:1038800030010020034800680349097808440149D1
:1038900008607047300100203801002010B508484A
:1038A000006840F0100006490860032000F0CAF8E4
:1038B0000F2000F007F800F049F8002010BD0000CC
:1038C0000020024070B588B0044600250026002282
:1038D00021462C2000F078F82C2000F065F800BF7D
:1038E0001648806940F40050144988610846806990
:1038F00000F40050019000BF00BF02A903A801F02E
:1039000073F801F0A9F805460D48B5FBF0F0461E26
:103910000C480D49086040F2E7310B48C160466031
:1039200000210161816002F041FF20B9064802F0E8
:10393000CDFF08B070BD0120FBE700000010024081
:1039400040420F00003401407C4F002008B500BF0A
:103950001348806940F00100114988610846806978
:1039600000F00100009000BF00BF00BF0846C06922
:1039700040F08050C8610846C06900F08050009057
:1039800000BF00BF00220F21901E00F01DF800BFF5
:103990000449486820F0E06000BF486000BF08BDEF
:1039A000001002400000014001460846002809DBE3
:1039B00000F01F0301229A4043099B0003F1E0231A
:1039C000C3F8002100BF70472DE9F05F80460D4627
:1039D000164600270BF0E4F8074639462A463346D8
:1039E00001F00700C0F1070ABAF1040F02D94FF045
:1039F000040A01E0C0F1070AD14600F1040ABAF155
:103A0000070F02D24FF0000A01E0A0F1030AD446EA
:103A10004FF0010A0AFA09FAAAF1010A0AEA020AAF
:103A20000AFA0CFA4FF0010B0BFA0CFBABF1010B8D
:103A30000BEA030B4AEA0B04214640460BF0B8F8A8
:103A4000BDE8F09F00BF00F00702064B19684FF673
:103A5000FF031940044B0B4343EA0221014B196059
:103A600000BF70470CED00E00000FA0570B5044699
:103A70000D4605EB850304F1280101EBC3014A69FA
:103A80002946D4F8E80206F065FB70BD70B504461F
:103A90000D4605EB850304F5B47101EBC3014A69DA
:103AA0002946D4F8E80206F0D5FB70BD70B504468F
:103AB0000E4606F00F006168884201D9012070BDF2
:103AC00006F0800080280AD106F0070000EB800194
:103AD00004F1280000EBC1050120687009E006F040
:103AE000070000EB800104F5B47000EBC105002075
:103AF00068700020A87006F00700287000BF94F8D6
:103B0000A802012801D10220D9E7012084F8A802E7
:103B100000BF2946206807F0B4F900BF002084F8F0
:103B2000A80200BF00BFCAE72DE9F04105460C46D8
:103B3000174607F48040002850D02868B0F850108D
:103B4000207801EBC000801C296801F5806131F804
:103B50001000C0F30906A069B04203D3A069801B1E
:103B6000A06101E00020A061A069A8B900BF22788F
:103B70005200296831F812104BF68F7201EA0200E8
:103B800080F4005040F4004141F0800123785B0054
:103B90002A6822F8131000BF07F04000A8B100BF48
:103BA00000BF22785200296831F8121048F68F724F
:103BB00001EA020040F4004141F0C00123785B00BB
:103BC0002A6822F8131000BF00BF002E55D02289AA
:103BD00061693346286807F0C9FF4EE02868B0F8ED
:103BE0005010207801EBC000801D296801F580612C
:103BF00031F81000C0F30906A069B04203D3A069F0
:103C0000801BA06101E00020A061A069A8B900BFED
:103C100022785200296831F812104BF68F7201EAAF
:103C2000020080F4005040F4004141F0800123780C
:103C30005B002A6822F8131000BF07F04000A8B903
:103C400000BF00BF22785200296831F8121048F6F0
:103C50008F7201EA020040F4004141F0C001237874
:103C60005B002A6822F8131000BF00BF2EB16289E2
:103C700061693346286807F079FF3046BDE8F08176
:103C80002DE9F04705460C46904608F04000002814
:103C900071D02868B0F85010207801EBC000801C6B
:103CA000296801F5806131F81000C0F30907A069A7
:103CB000B84203D9A069C01BA06101E00020A06147
:103CC000A06900287ED100BF6078C8B900BF29680C
:103CD0002A68B2F8502011442278022303EBC20272
:103CE00001F5806303EB420000BF028848F2FF3316
:103CF0001A400280028842F40042028000BF13E0B2
:103D00006078012810D100BF28682A68B2F85020D6
:103D100010442278022303EBC20200F5806303EB18
:103D2000420100220A8000BF00BF00BF29686078FE
:103D300010BB00BF2B68D5F800C0BCF850C063446E
:103D400094F800C04FF0060909EBCC0C03F580692C
:103D500009EB4C0000BFB0F800C048F2FF390CEA94
:103D6000090CA0F800C0B0F800C04CF4004CA0F85A
:103D700000C000BF11E0C0E0607801280DD12868C4
:103D8000B0F8500001442078062303EBC00001F591
:103D9000806303EB40020020108000BF217828469A
:103DA000FFF764FE08F48040002816D000BF00BF73
:103DB00022785200296831F8121048F68F7201EA11
:103DC000020000E00AE040F4004141F48141237820
:103DD0005B002A6822F8131000BFCAE108F4804093
:103DE000A8B100BF00BF22785200296831F8121034
:103DF00048F68F7201EA020040F4004141F481422A
:103E000023785B00296821F8132000BF00BF94F8D5
:103E100024000128E1D1606938446061E0693844D8
:103E2000E0612169206A884204D32669206A801BE8
:103E300020620BE0206A20B93E46002084F824006E
:103E400004E0002084F82400266A206200BF607825
:103E5000B8BB00BF2A682968B1F850100A4421781D
:103E6000022303EBC10102F5806303EB4101084625
:103E700000BF56B9038848F2FF3C03EA0C030380F5
:103E8000038843F40043038019E03E2E0BD800BFA3
:103E9000710806F0010303B1491C4FF6FF7303EAF2
:103EA000812303800BE000BF710906F01F0303B9F3
:103EB000491E4FF4004343EA8123038000BF00BF43
:103EC00013E0FFE7607801280FD100BF28682A6857
:103ED000B2F8502010442278022303EBC20200F50E
:103EE000806303EB42010E8000BF00BFB3B22289A2
:103EF0006169286807F066FE3BE12868B0F8501059
:103F0000207801EBC000801D296801F5806131F83F
:103F10001000C0F30907A069B84203D3A069C01B11
:103F2000A06101E00020A061A06900287DD100BF50
:103F30006078C8B900BF29682A68B2F850201144D7
:103F40002278022303EBC20201F5806303EB4200F7
:103F500000BF028848F2FF331A400280028842F410
:103F60000042028000BF13E06078012810D100BF3A
:103F700028682A68B2F8502010442278022303EB04
:103F8000C20200F5806303EB420100220A8000BFF9
:103F900000BF00BF2968607808BB00BF2B68D5F858
:103FA00000C0BCF850C0634494F800C04FF006094C
:103FB00009EBCC0C03F5806909EB4C0000BFB0F8AD
:103FC00000C048F2FF390CEA090CA0F800C0B0F8B4
:103FD00000C04CF4004CA0F800C000BF10E06078B6
:103FE00001280DD12868B0F850000144207806233C
:103FF00003EBC00001F5806303EB4002002010805A
:1040000000BF21782846FFF731FD08F480400028E2
:1040100016D100BF00BF22785200296831F8121073
:1040200048F68F7201EA020000E00AE040F4004125
:1040300041F4814123785B002A6822F8131000BF05
:1040400097E008F48040A8B900BF00BF2278520072
:10405000296831F8121048F68F7201EA020040F424
:10406000004141F4814123785B002A6822F8131053
:1040700000BF00BF94F8240001287AD16069384459
:104080006061E0693844E0612169206A884204D3B4
:104090002669206A801B20620BE0206A20B93E4618
:1040A000002084F8240004E0266A0020206284F8BE
:1040B000240000BF2A68607890BB00BFD5F800C01C
:1040C0002968B1F850108C4421784FF0060909EBAB
:1040D000C1010CF5806909EB4101084600BF76B9C2
:1040E000B0F8009048F2FF3A09EA0A09A0F80090F7
:1040F000B0F8009049F40049A0F8009020E03E2E6E
:104100000FD800BF710806F00109B9F1000F00D007
:10411000491C4FF6FF7909EA8129A0F800900FE0C9
:1041200010E000BF710906F01F09B9F1000F00D1BE
:10413000491E4FF4004949EA8129A0F8009000BFC8
:1041400000BF0FE0607801280CD12868B0F850005B
:1041500002442078062101EBC00002F5806101EBEA
:1041600040031E8000BFB3B262896169286807F00E
:1041700029FD00BF22785200296831F8121048F654
:10418000BF7201EA020080F0100080F0200040F4CD
:10419000004141F0800123785B002A6822F8131067
:1041A00000BF0020BDE8F0872DE9F04705460E4628
:1041B00090461F464FF0000906F0800080280AD183
:1041C00006F0070000EB800105F1280000EBC104B8
:1041D0000120607009E006F0070000EB800105F5A2
:1041E000B47000EBC1040020607006F0070020707E
:1041F000C4F81080E770607808B12078E081022F61
:1042000001D10020207100BF95F8A802012802D139
:104210000220BDE8F087012085F8A80200BF2146F2
:10422000286806F005FC00BF002085F8A80200BF42
:104230004846EEE72DE9F04105460E4617469846FA
:1042400006F0070000EB800105F5B47000EBC10437
:104250006761C4F818800020E061607006F0070014
:10426000207006F0070020B92146286806F0A4FE59
:1042700003E02146286806F09FFE0020BDE8F0819B
:1042800070B504460D4605F007006168884201D903
:10429000012070BD05F0800080280AD105F00700DC
:1042A00000EB800104F1280000EBC10601207070D2
:1042B00007E005EB850104F5B47000EBC1060020B2
:1042C00070700120B07005F00700307000BF94F8E6
:1042D000A802012801D10220DBE7012084F8A8020E
:1042E00000BF3146206806F039FE05F0070020B90E
:1042F00004F52C71206806F0C1FD00BF002084F891
:10430000A80200BF00BFC4E72DE9F04105460E46F4
:1043100090461F4606F0070000EB800105F12800DB
:1043200000EBC104C4F81480A761012084F82400C4
:1043300027620020E0610120607006F00700207015
:1043400006F0070020B92146286806F035FE03E094
:104350002146286806F030FE0020BDE8F0817FB5D8
:104360000446206807F0FEFB00F40040B0F5004F63
:1043700002D1204603F0D6FC206807F0F3FB00F4DE
:104380008060B0F5806F0FD12068B0F844004FF620
:10439000FF3108402168A1F84400204600F0D0F821
:1043A0000021204600F0ECF8206807F0DBFB00F469
:1043B0008040B0F5804F08D12068B0F844004BF63B
:1043C000FF7108402168A1F84400206807F0CAFB8B
:1043D00000F40050B0F5005F08D12068B0F8440048
:1043E0004DF6FF7108402168A1F84400206807F0ED
:1043F000B9FB00F48050B0F5805F1DD12068B0F8A3
:1044000040004FF6FB7108402168A1F84000206889
:10441000B0F840004FF6F77108402168A1F840005D
:10442000204600F09FF82068B0F844004EF6FF7177
:1044300008402168A1F84400206807F093FB00F4CD
:104440000060B0F5006F55D1002507E069002068D5
:1044500030F811002DF81500681CC5B2082DF5D3F1
:104460002068B0F8400040F001002168A1F8400049
:104470002068B0F840004FF6FE7108402168A1F8AE
:10448000400000BF2068B0F8440000F480600028BD
:10449000F8D02068B0F844004FF6FF31084021689A
:1044A000A1F84400002507E03DF815006A002168E6
:1044B00021F81200681CC5B2082DF5D32068B0F8A9
:1044C000400040F008002168A1F840002068B0F8E2
:1044D00044004FF2FF7108402168A1F844002068B1
:1044E000B0F8400040F004002168A1F840002046E8
:1044F00000F06AF8206807F035FB00F40070B0F5B2
:10450000007F0BD12068B0F844004FF6FF510840FF
:104510002168A1F84400204600F02BF8206807F03D
:1045200021FB00F48070B0F5807F08D12068B0F8DE
:1045300044004FF6FF6108402168A1F844007FBDA8
:1045400070B504460125A068022801D0FDF7E1FE00
:104550002946D4F8E80205F066FFD4F8E80205F031
:1045600018FF70BD10B50446D4F8E80205F03FFF0F
:1045700010BD10B50446D4F8E80205F043FF10BDA5
:1045800070B504460D4600BF94F8A802012801D179
:10459000022070BD012084F8A80200BF84F82450D6
:1045A0002946206807F007FB00BF002084F8A80216
:1045B00000BF00BFEDE710B5044604F52C71D4F838
:1045C000E80205F047FF10BD10B50446D4F8E80234
:1045D00005F08AFFA06928B10348006840F0060092
:1045E0000149086010BD000010ED00E00120014904
:1045F0000862704700000E422DE9F04385B0064680
:1046000042A30FCB01AC0FC444A0006800904FF050
:104610000008002500270024A146042E36D004DC23
:10462000012E3BD0022E6BD15FE0082E32D0102E2F
:1046300066D13B484468006800F0807000B301A870
:10464000C4F38341475C04F4803070B1344840685F
:10465000C0F340401DF8008004F4803040B1314880
:10466000B0FBF8F000FB07F502E02F4807FB00F570
:104670002B48406800F48000B0F5800F01D1A946B6
:1046800003E068000321B0FBF1F93AE000F0F4F92F
:10469000814636E000F0F0F9814632E02048046AB5
:1046A00004F44070B0F5807F05D104F0020010B131
:1046B0004FF4004918E004F44070B0F5007F07D1D2
:1046C0001748406A00F0020010B149F640490BE07B
:1046D00004F44070B0F5407F06D11148006800F442
:1046E000003008B14FF224490BE000F0B5F90C4955
:1046F0004968C1F38131491C4900B0FBF1F900E080
:1047000000BF00BF484605B0BDE8F08302030405C2
:10471000060708090A0B0C0D0E0F1010010200000D
:104720000010024000127A0000093D00F8B504466E
:1047300000260025207800F0010000286BD000271B
:104740004348C06900F0805070B900BF4048C0695C
:1047500040F080503E49C8610846C06900F0805072
:10476000009000BF00BF01273A48006800F4807045
:10477000B0B93848006840F4807036490860FFF7E7
:104780007BF8064606E0FFF777F8801B642801D91E
:104790000320F8BD2F48006800F480700028F2D094
:1047A0002B48006A00F440752DB3A08800F44070D7
:1047B000A84220D02648006A20F4407501202649EE
:1047C0000860002008602248056205F0010090B1F1
:1047D000FFF752F8064608E0FFF74EF8801B41F25B
:1047E0008831884201D90320D3E71948006A00F0D4
:1047F00002000028F0D01648006A20F4407061687A
:10480000084313490862012F04D10846C06920F00B
:104810008050C86100BF207800F00200022807D154
:104820000B48406820F44040A168084308494860AC
:10483000207800F01000102807D10548406820F4C7
:10484000800061690843024948600020A1E7000038
:1048500000100240007000404004424270B504461F
:104860000D460CB9012070BD5A48006800F00700E1
:10487000A8420ED25748006820F007002843554947
:1048800008600846006800F00700A84201D0012037
:10489000E9E7207800F0020002281DD1207800F01E
:1048A0000400042805D14C48406840F4E0604A49BF
:1048B0004860207800F00800082805D14648406884
:1048C00040F46050444948604348406820F0F0009C
:1048D000A168084340494860207800F0010078B39F
:1048E0006068012806D13C48006800F4003090B9A7
:1048F0000120B8E76068022806D13748006800F058
:10490000007040B90120AEE73348006800F00200B3
:1049100008B90120A7E73048406820F0030061682B
:1049200008432D494860FEF7A7FF064609E0FEF759
:10493000A3FF801B41F28831884202D9032092E70D
:1049400007E02548406800F00C006168B0EB810F7B
:10495000EDD12048006800F00700A8420ED91D489C
:10496000006820F0070028431A49086008460068DC
:1049700000F00700A84201D0012074E7207800F081
:104980000400042807D11448406820F4E060E1687E
:10499000084311494860207800F00800082808D131
:1049A0000D48406820F46050216940EAC1000A497E
:1049B000486000F061F808494968C1F30311074AEB
:1049C000515CC8400649086006480068FEF77AFF57
:1049D000002048E70020024000100240987C0108B7
:1049E0003C010020340100200F2202600D4A526871
:1049F00002F0030242600B4A526802F0F002826049
:104A0000084A526802F4E062C260064A526802F440
:104A10006052D2080261044A126802F007020A607A
:104A2000704700000010024000200240014800686A
:104A3000704700003C01002000B5FFF7F7FF044974
:104A40004968C1F30221034A515CC84000BD00001F
:104A500000100240A87C010800B5FFF7E7FF0449F9
:104A60004968C1F3C221034A515CC84000BD00003F
:104A700000100240A87C0108F0B585B00FF26C0C64
:104A80009CE8E01001A8A0E8E0101CA52D680095A6
:104A900000210022002300240020194D696801F044
:104AA0000C05F5B1042D02D0082D19D101E01548EF
:104AB00019E001ADC1F38346AC5D01F4803555B119
:104AC0000F4D6D68C5F340451DF805200D4D65433C
:104AD000B5FBF2F302E00C4D04FB05F3184602E0CF
:104AE00000BF084800BF00BF05B0F0BD02030405C9
:104AF000060708090A0B0C0D0E0F1010010200002A
:104B00000010024000127A0000093D00F8B504468A
:104B10000CB90120F8BD207800F00100002878D001
:104B2000F848406800F00C0004280CD0F5484068B4
:104B300000F00C00082811D1F248406800F48030E1
:104B4000B0F5803F0AD1EF48006800F4003000283B
:104B50005FD0606800285CD10120DBE700BF60689F
:104B6000B0F5803F06D1E748006840F48030E54961
:104B7000086028E0606858B9E248006820F4803096
:104B8000E04908600846006820F4802008601AE0C8
:104B90006068B0F5A02F0BD1DA48006840F480209F
:104BA000D84908600846006840F4803008600AE090
:104BB000D448006820F48030D24908600846006874
:104BC00020F48020086000BF606888B1FEF754FEC2
:104BD000054606E0FEF750FE401B642801D903207D
:104BE00098E7C848006800F400300028F2D010E0D0
:104BF000FEF742FE054606E0FEF73EFE401B642837
:104C000001D9032086E7BF48006800F4003000287F
:104C1000F2D1207800F00200022857D1B94840684C
:104C200000F00C0050B1B748406800F00C000828B4
:104C300018D1B448406800F4803098B9B148006891
:104C400000F0020020B12069012801D0012061E7B5
:104C5000AC48006820F0F800616940EAC100A94949
:104C6000086033E02069E8B10120A7490860FEF739
:104C700003FE054606E0FEF7FFFD401B022801D9B2
:104C8000032047E79F48006800F002000028F2D0A8
:104C90009C48006820F0F800616940EAC100994929
:104CA000086013E0002098490860FEF7E5FD05461E
:104CB00006E0FEF7E1FD401B022801D9032029E7A9
:104CC0009048006800F002000028F2D1207800F03F
:104CD000080008282DD1A069B8B101208B490860CF
:104CE000FEF7CAFD054606E0FEF7C6FD401B02289A
:104CF00001D903200EE78348406A00F00200002833
:104D0000F2D0012003F008FA13E000207F49086088
:104D1000FEF7B2FD054606E0FEF7AEFD401B022899
:104D200001D90320F6E67748406A00F00200002827
:104D3000F2D1207800F00400042873D100277148D4
:104D4000C06900F0805070B900BF6E48C06940F083
:104D500080506C49C8610846C06900F080500090DE
:104D600000BF00BF01276A48006800F48070B0B936
:104D70006748006840F4807065490860FEF77CFD74
:104D8000054606E0FEF778FD401B642801D90320A4
:104D9000C0E65F48006800F480700028F2D000BFD1
:104DA000E068012806D15748006A40F001005549E3
:104DB000086227E0E06858B95248006A20F0010014
:104DC000504908620846006A20F00400086219E0B1
:104DD000E06805280BD14B48006A40F004004949BF
:104DE00008620846006A40F0010008620AE045488F
:104DF000006A20F00100434908620846006A20F07A
:104E00000400086200BFE068A0B1FEF735FD05466A
:104E100009E0FEF731FD401B41F28831884202D99A
:104E2000032077E622E03748006A00F002000028FD
:104E3000EFD012E0FEF720FD054608E0FEF71CFD6E
:104E4000401B41F28831884201D9032062E62D4897
:104E5000006A00F002000028F0D1012F05D1294896
:104E6000C06920F080502749C86100BFE069C8B31D
:104E70002448406800F00C00082860D0E06902284F
:104E800048D1002020490866FEF7F6FC054606E0FA
:104E9000FEF7F2FC401B022801D903203AE619482C
:104EA000006800F000700028F2D1206AB0F5803F61
:104EB00007D11448406820F40030A1680843114924
:104EC0004860D4E9080108430E49496821F4741187
:104ED00008430C49486001200B490866FEF7CCFCEA
:104EE000054607E03DE0FEF7C7FC401B022801D95C
:104EF00003200FE60348006800F000700028F2D09D
:104F00002FE00000001002400000424280044242B4
:104F100000700040002014490866FEF7ADFC05460D
:104F200006E0FEF7A9FC401B022801D90320F1E5A9
:104F30000E48006800F000700028F2D111E0E0692E
:104F4000012800D1E6E50948466806F48031206A68
:104F5000814204D106F47011606A814201D00120BF
:104F6000D8E50020D6E500000000424200100240D3
:104F700010B5034600220020024A02EB81021468A9
:104F8000A0B210BD006C004010B5034600200348DD
:104F900000EB810094B2046010BD0000006C004082
:104FA00010B50446E27B02212046FFF7EDFF627B4D
:104FB00003212046FFF7E8FFA27B04212046FFF7EC
:104FC000E3FF227B05212046FFF7DEFF10BD70477F
:104FD00010B504462068006800F00100F0B12068B8
:104FE000406800F00100C8B120684068C0F380004C
:104FF00048B12046FFF7EBFF6FF0040021684860DE
:105000000420607404E02046FFF7CAFF01206074AA
:105010002068406820F001002168486010BD2DE93B
:10502000F04780460C46914600250026AA460027F8
:10503000B8F1000F00D014B90120BDE8F087D8F80E
:1050400000004068C0F3800008B10120F5E7404649
:1050500003F051F905464FF46160B5FBF0F7B5FB7D
:10506000F0F100FB11503C21B0FBF1F060704FF407
:105070006160B5FBF0F100FB11503C21B0FBF1F297
:1050800001FB1200A070182F39D31820B7FBF0FADB
:10509000B7FBF0F100FB11702070404603F01FF9E0
:1050A0000646701C18B1AE4201D9761B01E04FF0E4
:1050B000FF360AEB4A00C000C0EB4011C1EB0020F4
:1050C000A5EB00152946404603F088F908B10120F8
:1050D000B3E7701C38B12E443146404603F067F9FF
:1050E00040B10120A9E73146404603F060F908B11C
:1050F0000120A2E75146404603F03AF800E027704D
:10510000B9F1000F0BD0207803F025F820706078FB
:1051100003F021F86070A07803F01DF8A070002063
:105120008BE7000070B5044600250CB9012070BD66
:10513000607C20B900202074204600F05BF802203B
:105140006074204600F068F918B1042060740120F2
:10515000EDE7204603F067F818B1042060740120E1
:10516000E5E72068406820F0070021684860A068F3
:1051700028B11F48006820F001001D4908601C4844
:10518000001F006820F46070A16808431849091FD7
:1051900008606068401C08B1656809E00120FFF7FD
:1051A0002BFA05461DB9042060740120BFE76D1E6F
:1051B0002068806820F00F0040EA15402168886070
:1051C0002068C06865F30F002168C860204603F0BE
:1051D00047F818B1042060740120A8E70021E173AA
:1051E00001216173A1730120607400209FE700001A
:1051F000306C004038B504460F49206888421AD107
:10520000FFF7F4F900BF0D48C06940F000600B499A
:10521000C8610846C06900F00060009000BF00BF90
:10522000012007490860002205210320FEF7CCFB7E
:105230000320FEF7B9FB38BD0028004000100240F3
:105240003C0442422DE9F04704460D4690460026B4
:105250000027B14604B115B90120BDE8F08700BFB1
:10526000207C012801D10220F7E70120207400BF33
:1052700002206074B8F1000F06D1E978E173697813
:105280006173A978A1730BE0E87802F059FFE0732D
:10529000687802F055FF6073A87802F051FFA073A0
:1052A000A27B617BE07B03F040F82073207B2870B9
:1052B000204603F020F806464FF46160B6FBF0F993
:1052C000B9F1180F2FD91820B9FBF0F000EB40000E
:1052D000C000C0EB4011C1EB0020A6EB0016314628
:1052E000204603F07BF838B10420607400BF002032
:1052F000207400BF0120B0E7204602F0F0FF07460F
:10530000781C80B1B7420ED20B480744394620467C
:1053100003F04DF838B10420607400BF0020207401
:1053200000BF012099E70120607400BF00202074B5
:1053300000BF00BF91E70000805101002DE9F04758
:1053400004460D4690460026002704B115B90120F9
:10535000BDE8F08700BF207C012801D10220F7E7DB
:105360000120207400BF02206074B8F1000F0BD13F
:1053700028784FF4616148436978C1EB011100EB73
:105380008100A978461812E0287802F0D9FE4FF47F
:10539000616100FB01F9687802F0D2FEC0EB0010F9
:1053A00009EB8009A87802F0CBFE09EB0006314634
:1053B000204603F013F838B10420607400BF0020C9
:1053C000207400BF0120C3E72068406820F005007A
:1053D00021684860204602F082FF0746781C80B1B1
:1053E000B7420ED20B4807443946204602F0DFFF91
:1053F00038B10420607400BF0020207400BF012079
:10540000A6E70120607400BF0020207400BF00BF29
:105410009EE700008051010070B5044600250CB9DC
:10542000012070BD2068406820F0080021684860B5
:10543000FEF722FA054607E0FEF71EFA401BB0F51C
:105440007A7F01D90320ECE72068406800F008006B
:105450000028F1D00020E4E710B50446FCF7DEFD9B
:1054600010BD0000F0B589B004460E4600270320A9
:1054700084F83400606C032820D0B6F5805F04D136
:10548000A06B40F08050A0631CE0B6F5006F07D120
:10549000204603F068FE0546A06B2843A06311E098
:1054A0003EB9204603F02BFE0546A06B2843A063BF
:1054B00008E0A06B40F00060A06303E0A06B40F048
:1054C0008050A063A06B38B1174821688863012021
:1054D00084F83400012713E060680390A06804900A
:1054E000E0680590069660690790A069089006A894
:1054F00007C88DE80700206803A90EC902F0F6FF6F
:105500004FF40071206803F06DF8054635B1064888
:1055100021688863A06B2843A0630127012084F8D9
:105520003400384609B0F0BDFF0540007047000068
:1055300010B50246506E800F0870506EC0F3836045
:105540004870506EC0F301608870506E000CC870D7
:10555000B2F86400000A087192F864004871906E15
:10556000000DC880906EC0F3034008726820805A16
:10557000C0F3C03048726820805AC0F3803088720F
:105580006820805AC0F34030C8726820805AC0F347
:105590000030087300204873506C002836D1682012
:1055A000805A8005030DD06E43EA90700861D06E7A
:1055B000C0F3C2600875D06EC0F302604875D06E4B
:1055C000C0F342508875D06EC0F38240C875D06E6B
:1055D000C0F3C23008760869401C50650B7E506DE0
:1055E00003F007039B1C01249C4060435065087A2C
:1055F00000F00F03012098409065D2E915035B0A83
:105600005843D0654FF40073136621E0506C0128B5
:1056100013D16820805C8006830AD06E43EA104074
:1056200008610869401C83025365536DD3654FF4CC
:1056300000739365936D13660AE02E4813689863B0
:10564000906B40F080509063012082F8340010BDD0
:105650006C20805AC0F3803001F8190F6C20805AFA
:10566000C0F3C61048706C20805C00F07F0088702A
:10567000106FC00FC870106FC0F341700871106FC9
:10568000C0F382604871106FC0F383508871106F4F
:10569000C0F34050C87100200872106FC0F3004082
:1056A00048727020805AC0F3C03088727020805ACF
:1056B000C0F38030C8727020805AC0F34030087345
:1056C0007020805AC0F3003048737020805AC0F3B5
:1056D000812088737020805AC0F30120C873702025
:1056E000805CC0F34600087401204874193900201A
:1056F000ADE70000FF0540000246506C0860906C6A
:105700004860D06C8860106DC860506D0861906D05
:105710004861D06D8861106EC86100207047F8B58F
:105720000446002000906946204603F0D0FC054660
:1057300015B1A06B2843A0630098C0F34326304600
:10574000F8BD000070B50446256B2068406BC0F3BF
:10575000C03030B105F0080018B1204603F092FCCB
:10576000EEE02068406BC0F30020002862D04FF4C8
:105770008070216888632068C06B4CF23A118843BE
:105780002168C8632068C06A20F001002168C862EF
:1057900005F0080038B305F0020010B905F020004C
:1057A00050B1206803F062F806462EB1A06B30437A
:1057B000A0632046FFF7BAFE40F23A5021688863A2
:1057C000012084F834000020206305F0010010B9A6
:1057D00005F0020018B1204600F0F6FAB0E02046CD
:1057E00000F0F7FAACE005F080000028B8D005F032
:1057F000200050B1206803F039F806462EB1A06BA6
:105800003043A0632046FFF791FE05F00100002819
:10581000A6D105F002000028A2D12068C06A20F0BD
:1058200008002168C862012084F83400204600F096
:10583000D0FA85E02068406BC0F3803030B105F0CD
:10584000080018B1204603F0C2FC79E02068406BE4
:1058500000F03A0008B1012000E0002000286FD0DD
:105860002068406BC0F3400018B1A06B40F002000C
:10587000A0632068406BC0F3C00018B1A06B40F07B
:105880000800A0632068406BC0F3401018B1A06B03
:1058900040F02000A0632068406BC0F3001018B1F6
:1058A000A06B40F01000A06340F23A70216888635A
:1058B0002068C06B40F23A3188432168C863206891
:1058C00002F0D4FFA16B0843A06305F0080040B1CB
:1058D000012084F83400002020632046FFF726FED4
:1058E0002EE005F0800000B305F0100010B905F0BF
:1058F000200050B11348E16B4863E06BFDF746FAB6
:1059000098B1E06B03F012FA1AE005F0010010B94B
:1059100005F0020050B10C48216C4863206CFDF783
:1059200035FA10B1206C03F0DDF909E00020A06326
:10593000012084F83400002020632046FFF78CFD0E
:1059400070BD00002D8D0008E58C000810B50446E0
:105950000CB9012010BD94F8340020B90020207744
:10596000204600F067F8032084F83400204600F059
:105970000BF808B10120EDE70020A06320630120AF
:1059800084F834000020E5E770B58AB004460020B2
:10599000049005900690079008907620099007A83B
:1059A00007C88DE80700206804A90EC902F09EFD13
:1059B000064616B101200AB070BD00201B490860E0
:1059C000206802F0ADFD01201849A039C1F8A000FF
:1059D000204603F0F1FA05463DB1012084F8340079
:1059E000A06B2843A0630120E5E7204603F063FA9B
:1059F00005463DB1012084F83400A06B2843A06324
:105A00000120D8E74FF40071206802F0EBFD054655
:105A10004DB1074821688863A06B2843A06301202B
:105A200084F83400C7E70020C5E70000A00030423A
:105A3000FF05400010B586B0044600200290039098
:105A40000490059034492068884263D100BF3348F0
:105A5000406940F48060314948610846406900F47B
:105A60008060019000BF00BF00BF0846806940F021
:105A7000100088610846806900F01000019000BFA6
:105A800000BF00BF0846806940F0200088610846DA
:105A9000806900F02000019000BF00BF4FF4F85073
:105AA0000290022003900320059002A91C48FDF7F4
:105AB00035FD04200290022003900320059002A9E6
:105AC0001848FDF72BFD1848184908600020486069
:105AD0000021164881608021C16089000161890030
